{
  "contractName": "TicketingContract",
  "abi": [
    {
      "constant": false,
      "inputs": [
        {
          "internalType": "bytes32",
          "name": "_name",
          "type": "bytes32"
        },
        {
          "internalType": "bytes32",
          "name": "_type",
          "type": "bytes32"
        }
      ],
      "name": "createArtist",
      "outputs": [],
      "payable": false,
      "stateMutability": "nonpayable",
      "type": "function"
    },
    {
      "constant": false,
      "inputs": [
        {
          "internalType": "uint256",
          "name": "_id",
          "type": "uint256"
        },
        {
          "internalType": "bytes32",
          "name": "_name",
          "type": "bytes32"
        },
        {
          "internalType": "bytes32",
          "name": "_type",
          "type": "bytes32"
        },
        {
          "internalType": "uint256",
          "name": "_ticketsSold",
          "type": "uint256"
        }
      ],
      "name": "updateArtist",
      "outputs": [],
      "payable": false,
      "stateMutability": "nonpayable",
      "type": "function"
    },
    {
      "constant": false,
      "inputs": [
        {
          "internalType": "bytes32",
          "name": "_name",
          "type": "bytes32"
        },
        {
          "internalType": "uint256",
          "name": "_space",
          "type": "uint256"
        },
        {
          "internalType": "uint256",
          "name": "_percentTaken",
          "type": "uint256"
        }
      ],
      "name": "createVenue",
      "outputs": [],
      "payable": false,
      "stateMutability": "nonpayable",
      "type": "function"
    },
    {
      "constant": false,
      "inputs": [
        {
          "internalType": "uint256",
          "name": "_id",
          "type": "uint256"
        },
        {
          "internalType": "bytes32",
          "name": "_name",
          "type": "bytes32"
        },
        {
          "internalType": "uint256",
          "name": "_space",
          "type": "uint256"
        },
        {
          "internalType": "uint256",
          "name": "_percentTaken",
          "type": "uint256"
        }
      ],
      "name": "updateVenue",
      "outputs": [],
      "payable": false,
      "stateMutability": "nonpayable",
      "type": "function"
    },
    {
      "constant": false,
      "inputs": [
        {
          "internalType": "uint256",
          "name": "_nbDays",
          "type": "uint256"
        },
        {
          "internalType": "uint256",
          "name": "_artistId",
          "type": "uint256"
        },
        {
          "internalType": "uint256",
          "name": "_venueId",
          "type": "uint256"
        }
      ],
      "name": "createConcert",
      "outputs": [],
      "payable": false,
      "stateMutability": "nonpayable",
      "type": "function"
    },
    {
      "constant": false,
      "inputs": [
        {
          "internalType": "uint256",
          "name": "_concertId",
          "type": "uint256"
        }
      ],
      "name": "checkArtist",
      "outputs": [],
      "payable": false,
      "stateMutability": "nonpayable",
      "type": "function"
    },
    {
      "constant": false,
      "inputs": [
        {
          "internalType": "uint256",
          "name": "_concertId",
          "type": "uint256"
        }
      ],
      "name": "checkVenue",
      "outputs": [],
      "payable": false,
      "stateMutability": "nonpayable",
      "type": "function"
    },
    {
      "constant": false,
      "inputs": [
        {
          "internalType": "uint256",
          "name": "nbTickets",
          "type": "uint256"
        },
        {
          "internalType": "uint256",
          "name": "_concertId",
          "type": "uint256"
        }
      ],
      "name": "emitTicket",
      "outputs": [],
      "payable": false,
      "stateMutability": "nonpayable",
      "type": "function"
    },
    {
      "constant": false,
      "inputs": [
        {
          "internalType": "uint256",
          "name": "_ticketId",
          "type": "uint256"
        }
      ],
      "name": "useTicket",
      "outputs": [],
      "payable": false,
      "stateMutability": "nonpayable",
      "type": "function"
    },
    {
      "constant": false,
      "inputs": [
        {
          "internalType": "uint256",
          "name": "_concertId",
          "type": "uint256"
        },
        {
          "internalType": "uint256",
          "name": "_artistId",
          "type": "uint256"
        },
        {
          "internalType": "uint256",
          "name": "_price",
          "type": "uint256"
        },
        {
          "internalType": "address payable",
          "name": "_owner",
          "type": "address"
        }
      ],
      "name": "buyTicket",
      "outputs": [],
      "payable": true,
      "stateMutability": "payable",
      "type": "function"
    },
    {
      "constant": false,
      "inputs": [
        {
          "internalType": "address payable",
          "name": "_newOwner",
          "type": "address"
        },
        {
          "internalType": "uint256",
          "name": "_ticketId",
          "type": "uint256"
        }
      ],
      "name": "transferTickets",
      "outputs": [],
      "payable": false,
      "stateMutability": "nonpayable",
      "type": "function"
    },
    {
      "constant": false,
      "inputs": [
        {
          "internalType": "uint256",
          "name": "_concertId",
          "type": "uint256"
        }
      ],
      "name": "cashOut",
      "outputs": [],
      "payable": true,
      "stateMutability": "payable",
      "type": "function"
    },
    {
      "constant": false,
      "inputs": [
        {
          "internalType": "uint256",
          "name": "_ticketId",
          "type": "uint256"
        },
        {
          "internalType": "uint256",
          "name": "_price",
          "type": "uint256"
        }
      ],
      "name": "tradeTicket",
      "outputs": [],
      "payable": false,
      "stateMutability": "nonpayable",
      "type": "function"
    },
    {
      "constant": false,
      "inputs": [
        {
          "internalType": "uint256",
          "name": "_ticketId",
          "type": "uint256"
        }
      ],
      "name": "rebuyTicket",
      "outputs": [],
      "payable": true,
      "stateMutability": "payable",
      "type": "function"
    }
  ],
  "bytecode": "0x608060405234801561001057600080fd5b50611bff806100206000396000f3fe6080604052600436106100ad5760003560e01c806301cfdceb146100b25780630fbf84f61461010b57806310d262e314610150578063266064481461018b578063323a9beb146101c657806359cb327a146102215780635c7b79f5146102705780637e14a6891461029e5780638cef8b44146102d9578063d4cf5f1714610328578063e5dcf10114610381578063e80f82b3146103af578063ec391797146103f4578063fede022714610456575b600080fd5b3480156100be57600080fd5b50610109600480360360808110156100d557600080fd5b810190808035906020019092919080359060200190929190803590602001909291908035906020019092919050505061049b565b005b34801561011757600080fd5b5061014e6004803603604081101561012e57600080fd5b81019080803590602001909291908035906020019092919050505061063a565b005b34801561015c57600080fd5b506101896004803603602081101561017357600080fd5b81019080803590602001909291905050506107a1565b005b34801561019757600080fd5b506101c4600480360360208110156101ae57600080fd5b81019080803590602001909291905050506108c2565b005b3480156101d257600080fd5b5061021f600480360360408110156101e957600080fd5b81019080803573ffffffffffffffffffffffffffffffffffffffff16906020019092919080359060200190929190505050610ad8565b005b34801561022d57600080fd5b5061026e6004803603606081101561024457600080fd5b81019080803590602001909291908035906020019092919080359060200190929190505050610c0a565b005b61029c6004803603602081101561028657600080fd5b8101908080359060200190929190505050610ce7565b005b3480156102aa57600080fd5b506102d7600480360360208110156102c157600080fd5b8101908080359060200190929190505050610fb6565b005b3480156102e557600080fd5b50610326600480360360608110156102fc57600080fd5b810190808035906020019092919080359060200190929190803590602001909291905050506110d6565b005b34801561033457600080fd5b5061037f6004803603608081101561034b57600080fd5b81019080803590602001909291908035906020019092919080359060200190929190803590602001909291905050506111b9565b005b6103ad6004803603602081101561039757600080fd5b810190808035906020019092919050505061135a565b005b3480156103bb57600080fd5b506103f2600480360360408110156103d257600080fd5b8101908080359060200190929190803590602001909291905050506115da565b005b6104546004803603608081101561040a57600080fd5b81019080803590602001909291908035906020019092919080359060200190929190803573ffffffffffffffffffffffffffffffffffffffff1690602001909291905050506117a3565b005b34801561046257600080fd5b506104996004803603604081101561047957600080fd5b810190808035906020019092919080359060200190929190505050611a3c565b005b60008085815260200190815260200160002060010160009054906101000a900473ffffffffffffffffffffffffffffffffffffffff168073ffffffffffffffffffffffffffffffffffffffff163373ffffffffffffffffffffffffffffffffffffffff1614610572576040517f08c379a00000000000000000000000000000000000000000000000000000000081526004018080602001828103825260178152602001807f53656e646572206973206e6f7420746865206f776e657200000000000000000081525060200191505060405180910390fd5b6040518060a001604052808681526020013373ffffffffffffffffffffffffffffffffffffffff168152602001858152602001848152602001838152506000808781526020019081526020016000206000820151816000015560208201518160010160006101000a81548173ffffffffffffffffffffffffffffffffffffffff021916908373ffffffffffffffffffffffffffffffffffffffff1602179055506040820151816002015560608201518160030155608082015181600401559050505050505050565b6002600083815260200190815260200160002060010160009054906101000a900473ffffffffffffffffffffffffffffffffffffffff168073ffffffffffffffffffffffffffffffffffffffff163373ffffffffffffffffffffffffffffffffffffffff1614610712576040517f08c379a00000000000000000000000000000000000000000000000000000000081526004018080602001828103825260178152602001807f53656e646572206973206e6f7420746865206f776e657200000000000000000081525060200191505060405180910390fd5b6002600084815260200190815260200160002060020154821115610781576040517f08c379a0000000000000000000000000000000000000000000000000000000008152600401808060200182810382526037815260200180611b6d6037913960400191505060405180910390fd5b816002600085815260200190815260200160002060040181905550505050565b600160006003600084815260200190815260200160002060040154815260200190815260200160002060010160009054906101000a900473ffffffffffffffffffffffffffffffffffffffff168073ffffffffffffffffffffffffffffffffffffffff163373ffffffffffffffffffffffffffffffffffffffff161461088f576040517f08c379a00000000000000000000000000000000000000000000000000000000081526004018080602001828103825260178152602001807f53656e646572206973206e6f7420746865206f776e657200000000000000000081525060200191505060405180910390fd5b60016003600084815260200190815260200160002060050160016101000a81548160ff0219169083151502179055505050565b6002600082815260200190815260200160002060010160009054906101000a900473ffffffffffffffffffffffffffffffffffffffff168073ffffffffffffffffffffffffffffffffffffffff163373ffffffffffffffffffffffffffffffffffffffff161461099a576040517f08c379a00000000000000000000000000000000000000000000000000000000081526004018080602001828103825260178152602001807f53656e646572206973206e6f7420746865206f776e657200000000000000000081525060200191505060405180910390fd5b620151806003600060026000868152602001908152602001600020600301548152602001908152602001600020600001540342118015610a05575060036000600260008581526020019081526020016000206003015481526020019081526020016000206000015442105b610a77576040517f08c379a000000000000000000000000000000000000000000000000000000000815260040180806020018281038252601e8152602001807f436f6e63657274206973206e6f742077697468696e20323420686f757273000081525060200191505060405180910390fd5b600260008381526020019081526020016000206000808201600090556001820160006101000a81549073ffffffffffffffffffffffffffffffffffffffff021916905560028201600090556003820160009055600482016000905550505050565b6002600082815260200190815260200160002060010160009054906101000a900473ffffffffffffffffffffffffffffffffffffffff168073ffffffffffffffffffffffffffffffffffffffff163373ffffffffffffffffffffffffffffffffffffffff1614610bb0576040517f08c379a00000000000000000000000000000000000000000000000000000000081526004018080602001828103825260178152602001807f53656e646572206973206e6f7420746865206f776e657200000000000000000081525060200191505060405180910390fd5b826002600084815260200190815260200160002060010160006101000a81548173ffffffffffffffffffffffffffffffffffffffff021916908373ffffffffffffffffffffffffffffffffffffffff160217905550505050565b6040518060a0016040528060055481526020013373ffffffffffffffffffffffffffffffffffffffff168152602001848152602001838152602001828152506001600060055481526020019081526020016000206000820151816000015560208201518160010160006101000a81548173ffffffffffffffffffffffffffffffffffffffff021916908373ffffffffffffffffffffffffffffffffffffffff160217905550604082015181600201556060820151816003015560808201518160040155905050600560008154809291906001019190505550505050565b6000806003600084815260200190815260200160002060030154815260200190815260200160002060010160009054906101000a900473ffffffffffffffffffffffffffffffffffffffff168073ffffffffffffffffffffffffffffffffffffffff163373ffffffffffffffffffffffffffffffffffffffff1614610dd4576040517f08c379a00000000000000000000000000000000000000000000000000000000081526004018080602001828103825260178152602001807f53656e646572206973206e6f7420746865206f776e657200000000000000000081525060200191505060405180910390fd5b42600360008481526020019081526020016000206000015410610e5f576040517f08c379a000000000000000000000000000000000000000000000000000000000815260040180806020018281038252601c8152602001807f436f6e6365727420686173206e6f74207965742068617070656e65640000000081525060200191505060405180910390fd5b600060016000600360008681526020019081526020016000206004015481526020019081526020016000206004015490503373ffffffffffffffffffffffffffffffffffffffff166108fc60648360640381610eb757fe5b046003600087815260200190815260200160002060020154029081150290604051600060405180830381858888f19350505050158015610efb573d6000803e3d6000fd5b50600160006003600086815260200190815260200160002060040154815260200190815260200160002060010160009054906101000a900473ffffffffffffffffffffffffffffffffffffffff1673ffffffffffffffffffffffffffffffffffffffff166108fc60648381610f6c57fe5b046003600087815260200190815260200160002060020154029081150290604051600060405180830381858888f19350505050158015610fb0573d6000803e3d6000fd5b50505050565b6000806003600084815260200190815260200160002060030154815260200190815260200160002060010160009054906101000a900473ffffffffffffffffffffffffffffffffffffffff168073ffffffffffffffffffffffffffffffffffffffff163373ffffffffffffffffffffffffffffffffffffffff16146110a3576040517f08c379a00000000000000000000000000000000000000000000000000000000081526004018080602001828103825260178152602001807f53656e646572206973206e6f7420746865206f776e657200000000000000000081525060200191505060405180910390fd5b60016003600084815260200190815260200160002060050160006101000a81548160ff0219169083151502179055505050565b6040518060e0016040528084620151800242018152602001600081526020016000815260200183815260200182815260200160001515815260200160001515815250600360006006548152602001908152602001600020600082015181600001556020820151816001015560408201518160020155606082015181600301556080820151816004015560a08201518160050160006101000a81548160ff02191690831515021790555060c08201518160050160016101000a81548160ff021916908315150217905550905050600660008154809291906001019190505550505050565b6001600085815260200190815260200160002060010160009054906101000a900473ffffffffffffffffffffffffffffffffffffffff168073ffffffffffffffffffffffffffffffffffffffff163373ffffffffffffffffffffffffffffffffffffffff1614611291576040517f08c379a00000000000000000000000000000000000000000000000000000000081526004018080602001828103825260178152602001807f53656e646572206973206e6f7420746865206f776e657200000000000000000081525060200191505060405180910390fd5b6040518060a001604052808681526020013373ffffffffffffffffffffffffffffffffffffffff16815260200185815260200184815260200183815250600160008781526020019081526020016000206000820151816000015560208201518160010160006101000a81548173ffffffffffffffffffffffffffffffffffffffff021916908373ffffffffffffffffffffffffffffffffffffffff1602179055506040820151816002015560608201518160030155608082015181600401559050505050505050565b600260008281526020019081526020016000206004015434146113c8576040517f08c379a0000000000000000000000000000000000000000000000000000000008152600401808060200182810382526027815260200180611ba46027913960400191505060405180910390fd5b600060026000838152602001908152602001600020600401541415611455576040517f08c379a000000000000000000000000000000000000000000000000000000000815260040180806020018281038252601c8152602001807f5469636b6574206973206e6f74206f70656e20666f722074726164650000000081525060200191505060405180910390fd5b6002600082815260200190815260200160002060010160009054906101000a900473ffffffffffffffffffffffffffffffffffffffff1673ffffffffffffffffffffffffffffffffffffffff166108fc60026000848152602001908152602001600020600401549081150290604051600060405180830381858888f193505050501580156114e7573d6000803e3d6000fd5b506040518060a001604052808281526020013373ffffffffffffffffffffffffffffffffffffffff16815260200160026000848152602001908152602001600020600401548152602001600260008481526020019081526020016000206003015481526020016000815250600260008381526020019081526020016000206000820151816000015560208201518160010160006101000a81548173ffffffffffffffffffffffffffffffffffffffff021916908373ffffffffffffffffffffffffffffffffffffffff16021790555060408201518160020155606082015181600301556080820151816004015590505050565b6000806003600084815260200190815260200160002060030154815260200190815260200160002060010160009054906101000a900473ffffffffffffffffffffffffffffffffffffffff168073ffffffffffffffffffffffffffffffffffffffff163373ffffffffffffffffffffffffffffffffffffffff16146116c7576040517f08c379a00000000000000000000000000000000000000000000000000000000081526004018080602001828103825260178152602001807f53656e646572206973206e6f7420746865206f776e657200000000000000000081525060200191505060405180910390fd5b600115156003600084815260200190815260200160002060050160009054906101000a900460ff1615151480156117255750600115156003600084815260200190815260200160002060050160019054906101000a900460ff161515145b61177a576040517f08c379a000000000000000000000000000000000000000000000000000000000815260040180806020018281038252602c815260200180611b19602c913960400191505060405180910390fd5b826003600084815260200190815260200160002060010160008282540192505081905550505050565b8134146117fb576040517f08c379a0000000000000000000000000000000000000000000000000000000008152600401808060200182810382526028815260200180611b456028913960400191505060405180910390fd5b60036000858152602001908152602001600020600001544210611886576040517f08c379a000000000000000000000000000000000000000000000000000000000815260040180806020018281038252601c8152602001807f436f6e636572742068617320616c72656164792068617070656e65640000000081525060200191505060405180910390fd5b60036000858152602001908152602001600020600101546007541115611914576040517f08c379a00000000000000000000000000000000000000000000000000000000081526004018080602001828103825260208152602001807f4e6f206d6f7265207469636b65747320666f72207468697320636f6e6365727481525060200191505060405180910390fd5b6040518060a0016040528060075481526020018273ffffffffffffffffffffffffffffffffffffffff16815260200183815260200185815260200160008152506002600060075481526020019081526020016000206000820151816000015560208201518160010160006101000a81548173ffffffffffffffffffffffffffffffffffffffff021916908373ffffffffffffffffffffffffffffffffffffffff1602179055506040820151816002015560608201518160030155608082015181600401559050506000808481526020019081526020016000206004016000815480929190600101919050555081600360008681526020019081526020016000206002016000828254019250508190555060076000815480929190600101919050555050505050565b6040518060a0016040528060045481526020013373ffffffffffffffffffffffffffffffffffffffff168152602001838152602001828152602001600081525060008060045481526020019081526020016000206000820151816000015560208201518160010160006101000a81548173ffffffffffffffffffffffffffffffffffffffff021916908373ffffffffffffffffffffffffffffffffffffffff160217905550604082015181600201556060820151816003015560808201518160040155905050600460008154809291906001019190505550505056fe436f6e63657274206973206e6f7420636f6e6669726d65642062792061727469737420616e642076656e7565416d6f756e742073656e74206973206e6f7420657175616c20746f207469636b657420707269636554726164696e67207469636b657420666f72206d6f7265207468616e2069742077617320626f7567687420697320666f7262696464656e416d6f756e742073656e74206973206e6f7420657175616c20746f2070726963652061736b6564a265627a7a723158209002e450e4c2b5450ec73d8d6032d93d92bb2d2443c839f1ae02c1c3a9563c1764736f6c634300050e0032",
  "source": "pragma solidity ^0.5.0;\r\n\r\ncontract TicketingContract {\r\n\r\n    struct Artist {\r\n        uint256 id;\r\n        address payable owner;\r\n        bytes32 name;\r\n        bytes32 style;\r\n        uint256 ticketsSold;\r\n    }\r\n\r\n    struct Venue {\r\n        uint256 id;\r\n        address payable owner;\r\n        bytes32 name;\r\n        //space is measured in squared meters\r\n        uint256 space; \r\n        //percent of ticket price going to venue\r\n        uint256 percentTaken;\r\n    }\r\n\r\n    struct Concert {\r\n        uint256 date;\r\n        uint256 ticketsEmitted;\r\n        uint256 gain;\r\n        uint256 artistId;\r\n        uint256 venueId;\r\n        bool artistCheck;\r\n        bool venueCheck;\r\n    }\r\n\r\n    struct Ticket {\r\n        uint256 id;\r\n        address payable owner;\r\n        uint256 price;\r\n        uint256 concertId;\r\n        uint256 trade;\r\n    }\r\n\r\n    mapping (uint256 => Artist) private artists;\r\n    mapping (uint256 => Venue) private venues;\r\n    mapping (uint256 => Ticket) private tickets;\r\n    mapping (uint256 => Concert) private concerts;\r\n\r\n    uint256 artistCompt;\r\n    uint256 venueCompt;\r\n    uint256 concertCompt;\r\n    uint256 ticketCompt;\r\n\r\n    modifier isOwner(address owner) {\r\n      require (msg.sender == owner, \"Sender is not the owner\");\r\n      _;\r\n  }\r\n\r\n  function createArtist(bytes32 _name, bytes32 _type) public {\r\n    artists[artistCompt] = Artist(artistCompt, msg.sender, _name, _type, 0);\r\n    artistCompt ++;\r\n}\r\n\r\nfunction updateArtist(uint256 _id, bytes32 _name, bytes32 _type, uint256 _ticketsSold) public isOwner(artists[_id].owner) {\r\n    artists[_id] = Artist(_id, msg.sender, _name, _type, _ticketsSold);\r\n}\r\n\r\nfunction createVenue(bytes32 _name, uint256 _space, uint256 _percentTaken) public {\r\n    venues[venueCompt] = Venue(venueCompt, msg.sender, _name, _space, _percentTaken);\r\n    venueCompt ++;\r\n}\r\n\r\nfunction updateVenue(uint256 _id, bytes32 _name, uint256 _space, uint256 _percentTaken) public isOwner(venues[_id].owner) {\r\n    venues[_id] = Venue(_id, msg.sender, _name, _space, _percentTaken);\r\n}\r\n\r\nfunction createConcert(uint256 _nbDays, uint256 _artistId, uint256 _venueId) public {\r\n    concerts[concertCompt] = Concert(now + 1 days * _nbDays, 0, 0, _artistId, _venueId, false, false);\r\n    concertCompt ++;\r\n}\r\n\r\nfunction checkArtist(uint256 _concertId) public isOwner(artists[concerts[_concertId].artistId].owner) {\r\n    concerts[_concertId].artistCheck = true;\r\n}\r\n\r\nfunction checkVenue(uint256 _concertId) public isOwner(venues[concerts[_concertId].venueId].owner) {\r\n    concerts[_concertId].venueCheck = true;\r\n}\r\n\r\nfunction emitTicket(uint256 nbTickets, uint256 _concertId) public isOwner(artists[concerts[_concertId].artistId].owner) {\r\n    require(concerts[_concertId].artistCheck == true && concerts[_concertId].venueCheck == true, \"Concert is not confirmed by artist and venue\");\r\n    concerts[_concertId].ticketsEmitted += nbTickets;\r\n}\r\n\r\nfunction useTicket(uint256 _ticketId) public isOwner(tickets[_ticketId].owner) {\r\n    require(now > (concerts[tickets[_ticketId].concertId].date - 24 * 1 hours) && now < concerts[tickets[_ticketId].concertId].date , \"Concert is not within 24 hours\");\r\n    delete tickets[_ticketId];\r\n}\r\n\r\nfunction buyTicket(uint256 _concertId, uint256 _artistId, uint256 _price, address payable _owner) public payable {\r\n    require(msg.value == _price, \"Amount sent is not equal to ticket price\");\r\n    require(now < concerts[_concertId].date, \"Concert has already happened\");\r\n    require(ticketCompt <= concerts[_concertId].ticketsEmitted, \"No more tickets for this concert\");\r\n\r\n    tickets[ticketCompt] = Ticket(ticketCompt, _owner, _price, _concertId, 0);\r\n    artists[_artistId].ticketsSold ++;\r\n    concerts[_concertId].gain += _price;\r\n    ticketCompt ++;\r\n}\r\n\r\nfunction transferTickets(address payable _newOwner, uint256 _ticketId) public isOwner(tickets[_ticketId].owner) {\r\n    tickets[_ticketId].owner = _newOwner;\r\n}\r\n\r\nfunction cashOut(uint256 _concertId) public payable isOwner(artists[concerts[_concertId].artistId].owner) {\r\n    require(concerts[_concertId].date < now, \"Concert has not yet happened\");\r\n    uint256 com = venues[concerts[_concertId].venueId].percentTaken;\r\n    msg.sender.transfer(concerts[_concertId].gain * ((100 - com) / 100));\r\n    venues[concerts[_concertId].venueId].owner.transfer(concerts[_concertId].gain * (com / 100));\r\n}\r\n\r\nfunction tradeTicket(uint256 _ticketId, uint256 _price) public isOwner(tickets[_ticketId].owner) {\r\n    require(_price <= tickets[_ticketId].price, \"Trading ticket for more than it was bought is forbidden\");\r\n    tickets[_ticketId].trade = _price;\r\n}\r\n\r\nfunction rebuyTicket(uint256 _ticketId) public payable {\r\n    require(msg.value == tickets[_ticketId].trade, \"Amount sent is not equal to price asked\");\r\n    require(tickets[_ticketId].trade != 0, \"Ticket is not open for trade\");\r\n\r\n    tickets[_ticketId].owner.transfer(tickets[_ticketId].trade);\r\n    tickets[_ticketId] = Ticket(_ticketId, msg.sender, tickets[_ticketId].trade, tickets[_ticketId].concertId, 0);\r\n}\r\n\r\n\r\n}\r\n",
  "sourcePath": "C:/Users/franc/Documents/ESILV/A5/Blockchain Prog/Ethereum/TD5/contracts/TicketingContract.sol",
  "compiler": {
    "name": "solc",
    "version": "0.5.14+commit.01f1aaa4.Emscripten.clang"
  },
  "schemaVersion": "3.0.11",
  "updatedAt": "2019-12-12T23:57:55.232Z",
  "devdoc": {
    "methods": {}
  },
  "userdoc": {
    "methods": {}
  }
}